:040000008A15432AF0
:10000800FF00030E83018316BE000A08BF008A01A1
:1000180070088312AF007108AE007208AD00730853
:10002800AC007408AB007508AA007608A900770828
:10003800A8007808A7007908A6007A08A5007B0818
:10004800A4007C08A3007D08A2008B1C68289330BC
:100058008316D0000230D100FA30D200D3018A15BD
:100068005F208A118B10831205150B30FB00263098
:10007800FC005D30FD00FD0B3F28FC0B3F28FB0B0F
:100088003F2800000000051105150B30FB00263045
:10009800FC005D30FD00FD0B4F28FC0B4F28FB0BCF
:1000A8004F2800000000051105150B30FB00263015
:1000B800FC005D30FD00FD0B5F28FC0B5F28FB0B8F
:1000C8005F280000000005110B1C0129061E872867
:1000D800861A8528061E8528071587108514063078
:1000E800FB001330FC00AD30FD00FD0B7928FC0B44
:1000F8007928FB0B7928000000008510071187106C
:100108006C280B10A228861EA228061AA228861E72
:10011800A128061AA128071187141530FB004B30B7
:10012800FC00BE30FD00FD0B9728FC0B9728FB0B4D
:1001380097280000071187108B280B10061FC1286D
:100148008B18C128861BBF28061FBF2887160712D1
:1001580085140B30FB002630FC005D30FD00FD0BE4
:10016800B328FC0BB328FB0BB32800000000851054
:1001780087120712A6280B100129061FE9288B1CD5
:10018800E928861FD828061BD828871207160330A7
:10019800FC009730FD00FD0BCF28FC0BCF2800009A
:1001A800000087120712C52805151F30FB007130A3
:1001B800FC001E30FD00FD0BDF28FC0BDF28FB0BCD
:1001C800DF28000005110B100129861F0129061BD5
:1001D8000129861F0029061B0029871207160330EC
:1001E800FC009730FD00FD0BF728FC0BF7280000FA
:1001F800000087120712ED280B102F08F0002E08B8
:10020800F1002D08F2002C08F3002B08F4002A084E
:10021800F5002908F6002808F7002708F80026083E
:10022800F9002508FA002408FB002308FC0022082E
:10023800FD0083163F088A003E0E8300FF0E7F0EE6
:020248000900AB
:10024A000F3083120313FC004730FD00FD0B2B29EE
:0A025A00FC0B2B2900000000080037
:0E026400213083120313FD00FD0B3629080024
:060272000000000008007E
:08027800FA1FF2130030080028
:100280007B15FB1F4A290130F300F201F101F00157
:08029000FA0DF20CFF3008002A
:1002980083160313CF1B5329831288115529831200
:1002A800881583164F1B5B29831208115D29831259
:1002B80008158316CF1A63298312881065298312BB
:1002C800881483164F1A6B29831208106D2983121C
:1002D8000814831622187329831288167529831225
:1002E80088120816392108128316CF197E2983121D
:1002F800881180298312881583164F19862983123D
:1003080008118829831208158316CF188E2983129D
:10031800881090298312881483164F1896298312FF
:100328000810982983120814831622189E2983120C
:100338008816A029831288120816392108128316F4
:0C034800221CA8292521A9293221080027
:10035400FB14FB1FB429FF30F300F200F100F0009E
:08036400FA0DF20CFF30080055
:0E036C00F201F101F001F801F3010030080088
:10037A0083120313FA017308031D7A147708031D05
:10038A00FA147A080319092A033A0319D4297A189C
:10039A00D129F61F072A052AF21F052A072A7208F9
:1003AA008039FA00F21376088039F6137A060319AF
:1003BA00E2297A080319052A072A7708730203191A
:1003CA00E929031CFD29012A760872020319F0297A
:1003DA00031CFD29012A750871020319F729031C58
:1003EA00FD29012A740870020319092A0318012A2F
:1003FA00FA080319072A052AFA080319052A072AF7
:10040A000314080003100800031403150800080069
:10041A00A0017208031D222A7108F2007008F10077
:10042A00F001A0157208031D222A7108F200F101D9
:10043A00A011201672080319302A2008F302031D9E
:10044A00031C342A0310F21B382AF00DF10DF20DA9
:10045A00F30B282A342A0130FC00B6213B2A023049
:0E046A00FC0040213B2A0430FC003C2108002D
:1004780083120313FB01FA01F901F801A101730DBD
:10048800F80D7408F8027508031C750FF902760850
:10049800031C760FFA027708031C770FFB02000192
:1004A800031C0130A102F30D0730FC00730DF80D99
:1004B800F90DFA0DFB0DA10D7408731C752AF802CD
:1004C8007508031C750FF9027608031C760FFA02EB
:1004D8007708031C770FFB020001031C0130A102FF
:1004E800862AF80775080318750FF90776080318A0
:1004F800760FFA0777080318770FFB070001031830
:100508000130A107F30DFC0B5A2A720DF80DF90DF5
:10051800FA0DFB0DA10D7408731CA42AF8027508C6
:10052800031C750FF9027608031C760FFA02770888
:10053800031C770FFB020001031C0130A102B52A3E
:10054800F80775080318750FF90776080318760F6A
:10055800FA0777080318770FFB0700010318013023
:10056800A107F20D0730FC00720DF80DF90DFA0D18
:10057800FB0DA10D7408721CD32AF8027508031C20
:10058800750FF9027608031C760FFA027708031C28
:10059800770FFB020001031C0130A102E42AF807CF
:1005A80075080318750FF90776080318760FFA0708
:1005B80077080318770FFB07000103180130A1071C
:1005C800F20DFC0BB82A710DF80DF90DFA0DFB0DA3
:1005D800A10D7408721C022BF8027508031C750F14
:1005E800F9027608031C760FFA027708031C770FC6
:1005F800FB020001031C0130A102132BF807750848
:100608000318750FF90776080318760FFA077708A5
:100618000318770FFB07000103180130A107F10D3C
:100628000730FC00710DF80DF90DFA0DFB0DA10D49
:100638007408711C312BF8027508031C750FF90238
:100648007608031C760FFA027708031C770FFB0263
:100658000001031C0130A102422BF807750803189A
:10066800750FF90776080318760FFA077708031845
:10067800770FFB07000103180130A107F10DFC0BF0
:10068800162B700DF80DF90DFA0DFB0DA10D740860
:10069800711C602BF8027508031C750FF9027608A7
:1006A800031C760FFA027708031C770FFB02000180
:1006B800031C0130A102712BF80775080318750F88
:1006C800F90776080318760FFA0777080318770FE3
:1006D800FB07000103180130A107F00D0730FC00EB
:1006E800700DF80DF90DFA0DFB0DA10D7408701CB5
:1006F8008F2BF8027508031C750FF9027608031C86
:10070800760FFA027708031C770FFB020001031C1F
:100718000130A102A02BF80775080318750FF90717
:1007280076080318760FFA0777080318770FFB0780
:10073800000103180130A107F00DFC0B742B701891
:10074800B32B7408F80775080318750FF9077608AE
:100758000318760FFA0777080318770FFB070800C6
:100768008316031322104D08CF004C218316221440
:02077800080077
:10077A000E3083120313FD00FD0BC12B000008008D
:0E078A008316031321088A002008820008004D
:1007980083120313FB017308031D77080319232C25
:1007A80072087606FA007708F3077E30031CE02B00
:1007B800F3020318262CE32BF302031C292C7208DE
:1007C800F8007108FC007008FD00F817F617031010
:1007D800F201F101F0011830A0007D1CFD2B740816
:1007E800F00775080318750FF10776080318760FD8
:1007F800F207F20CF10CF00CF80CFC0CFD0C0310D9
:10080800A00BF12BF21B0D2CF80DF00DF10DF20DD4
:10081800F3037B1B701C1F2CF81F1F2CF00A0319F5
:10082800F10A0319F20A031D1F2CF20CF10CF00C4B
:10083800F30A0319262CFA1FF21300302B2C01306F
:10084800B6212B2C0230AA212B2C04304021000089
:02085800080096
:10085A00831603134D08F2007208F100F20A4E08DB
:10086A00F000CE0A700884000008F00071088400C5
:10087A00700880007108840000080319452C312C87
:06088A004D08F00008001B
:10089000831203132230FC00F801F901FA01FB0175
:1008A000FC0303197E2C0310FB0CFA0CF90CF80C5A
:1008B000F30CF20CF10CF00C031C502CFC0303198C
:1008C000702C7408F80775080318750FF907760877
:1008D0000318760FFA0777080318770FFB07542CD5
:1008E0007408F80775080318750FF90776080318D8
:0E08F000760FFA0777080318770FFB0708004A
:0608FE00FB15FF300800AD
:1009040083120313FD01F8017008031900347406FF
:10091400FA00FA1BFD09FB01F41F922CF409F40AF6
:10092400F01F962CF009F00A70087404FA00FA1B00
:10093400BA2C7408F802F00D700DF80D7408F8075D
:10094400F00D0630FC00700DF80D74087018F802F4
:10095400701CF807F00DFC0BA52C701CF8077B1815
:10096400C82CFD1F0034F009F00AF809F80A003415
:10097400F41FC52CF01BC22C7008F800F001B32C36
:10098400F001F00A0034F009FB0A9B2CF80A740801
:100994007802031DB32CF801F00AF01FB32CFF34C6
:0209A400080049
:1009A600403083120313F0001F30F100F201F3010F
:0209B600080037
:1009B80083160313DC03DC035C08003C0318E92CF2
:1009C800DC03000000000000E02C00000000000034
:0609D80000000000080011
:1009DE0083120313F801F9011030FC00710DF80DAC
:1009EE00F90D7408F8027508031C750FF902031847
:1009FE00072D7408F80775080318750FF90703100B
:0A0A0E00F00DF10DFC0BF52C0800B3
:100A180083160313CB01CC014008C7004108C80066
:100A28004208C9004308CA004A08FF3A031D262D98
:100A38004908FF3A031D262D4808FF3A031D262DB5
:100A48004708FF3A031D302D4408CD006730CE001B
:100A58002D240330F000112F0130C500C91F3F2D90
:100A680080304906F0007008C900C50A44088400AF
:100A78002D308000C40A0030F0004A06031D4E2DB8
:100A880070084906031D4E2D70084806031D4E2D9B
:100A98004708003A031D572D4408CD006530CE00A5
:100AA8002D24F001112F4A08FF3A031D652D49082E
:100AB800003A031D652D4808003A031D652D4708B7
:100AC800003A031D6F2D4408CD006130CE002D245F
:100AD8004508F000112F0030F4000030F500003018
:100AE800F6007F30F7004708F0004808F100490891
:100AF800F2004A08F300BD21013003180030F0006D
:100B080070080319A42D83164708F0004808F1005F
:100B18004908F2004A08F3000030F4000030F500FC
:100B28002030F6008230F700CC2370088316C70007
:100B38007108C8007208C9007308CA00CC036F2D79
:100B480083160030F4000030F5002030F6008230C3
:100B5800F7004708F0004808F1004908F2004A0881
:100B6800F300BD210130031C0030F00070080319A8
:100B7800DA2D83164708F0004808F1004908F2000A
:100B88004A08F300CD30F400CC30F5004C30F600C4
:100B98007B30F700CC2370088316C7007108C800A3
:100BA8007208C9007308CA00CC0AA42D8316FF3046
:100BB8004705F800FF304805F9007F304905FA007D
:100BC80000304A05FB007808F4007908F5007A0837
:100BD800F6007B08F700F40DF50DF60DF70D74100F
:100BE80000304705F00000304805F10000304905A5
:100BF800F200FF304A05F3007008C7007108C8000A
:100C08007208C9007308CA0074084704F000750820
:100C18004804F10076084904F20077084A04F30012
:100C28007008C7007108C8007208C9007308CA00B4
:100C38007F304A02F0007008C6000130CA00700810
:100C4800F4004708F0004808F1004908F2004A0893
:100C5800F30074080319372EF00DF10DF20DF30DA2
:100C68007010FF3E2E2E7008C7007108C800720869
:100C7800C9007308CA004A08303EF00044088400DE
:100C880070088000C40A80304C06F0008030013AB9
:100C98007002031C582E8030063AF00080304C0653
:100CA8007002031C582E5F2E440884002E308000EA
:100CB800C40A0130CB000630C6004608003A0319C2
:100CC800BD2ECA014708F0004808F1004908F200A3
:100CD8004A08F300F00DF10DF20DF30D7010F00D50
:100CE800F10DF20DF30D70104708F00748080318CE
:100CF800480FF10749080318490FF2074A08031873
:100D08004A0FF3077008C7007108C8007208C900C5
:100D18007308CA004708F0004808F1004908F200C3
:100D28004A08F300F00DF10DF20DF30D7010700884
:100D3800C7007108C8007208C9007308CA004A08C9
:100D4800303EF0004408840070088000C40A4B0854
:100D5800003A031DBB2ECC034C08003A031DBB2EE2
:100D6800440884002E308000C40A0130CB00C6033A
:100D7800612EFF30440784000008303A031DC62E58
:100D8800C403BD2EFF304407840000082E3A031D1B
:100D9800CE2EC4034C08003A03190D2F44088400D2
:100DA80065308000C40A80304C06F0008030003A7C
:100DB80070020318E72E440884002D308000C40A0E
:100DC8004C08003CCC004C08C6008030093AF000C2
:100DD80080304C0670020318FE2E0A30F4004608D4
:100DE800F00082243030F00783164408840070082D
:100DF8008000C40A0A30F4004608F000822478080B
:100E0800F0003030F0078316440884007008800032
:0C0E1800C40A440884008001F0010800B6
:100E2400831203137408003A031D2D2F7508003A2A
:100E3400031D2D2F7608003A031D2D2F7708003A45
:100E4400031D2D2FFF30F000FF30F1007F30F20042
:100E5400FF30F300C82F8312031377080319BC2F44
:100E640073080319BF2F720876068039FA00F21747
:100E7400F617A0017208F8007108FC007008FD0064
:100E84007408FD027508031C750FFC027608031C28
:100E9400760FF802F801FC01FD01031C582F031022
:100EA400F20CF10CF00CF80C0130A0007708F302FE
:100EB400031C622F7E302007F3070318C22F672F0D
:100EC4007E302007F307031CC52F1830FA07FD0DE9
:100ED400FC0DF80DF00DF10DF20DA00D7408F002EB
:100EE4007508031C750FF1027608031C760FF202D5
:100EF400760DA004201C802F7D148B2F7408F0071E
:100F040075080318750FF10776080318760AF207B7
:100F14007D10FA031F307A05031D692F7B1B7D1C8E
:100F2400B22F0310F00DF10DF20DA00D7408F002B4
:100F34007508031C750FF1027608031C760FF20284
:100F4400760D20040139FD070318FC0A0319F80A79
:100F5400031DB22FF80CFC0CFD0CF30A0319C22F6D
:100F6400FA1FF8137808F2007C08F1007D08F000FD
:100F74000030C72F01307F24C72F0230B621C72F7E
:0E0F84000430AA21C72F0830402100000800C9
:100F9200831203139F01C0309F046B09F000700895
:100FA20083169F051F179F174008F000F00D701061
:100FB200F00D7010F00D7010700883129F041F1452
:100FC200BD231F151F1DE72F0000E32F1F101E0852
:100FD200F100F00183161E08F0040030F10408004D
:100FE400303084003C3083120313F000DC3083166D
:0E0FF400A0000C30A1008A1552208A110800BE
:101000001228803083160313C0002528C030C0008A
:1010100025289430C0002528D430C00025288030F1
:10102000C0002528831603134008013A031901283C
:101030004008023A031906284008033A0319092810
:101040004008043A03190C280F284103F000400817
:10105000F0077008C00022147008CF008A114C21DC
:101060008A15831622104208CF008A114C218A1556
:06107000831622140800A3
:10107600FF3083160313B900FF30BA00FF30BB0000
:10108600FF3083129F01C0309F046B09F000700887
:0E10960083169F051F179F1783121F14080053
:1010A4008A11C5238A150A128000840AA00A03192A
:0A10B400A10AF003031D52280800F2
:1010BE008A11D3248A15E830F4000330F500F601C6
:1010CE00F7018A1148248A1570088316D800710812
:1010DE00D9007208DA007308DB005008F4005108DA
:1010EE00F500F601F7018A113C228A157008831665
:1010FE00D8007108D9007208DA007308DB00700896
:10110E00F5007108F6007208F7007308F800F80C85
:10111E00F70CF60CF50CF813F80CF70CF60CF50CA6
:10112E00F8137508F0007608F1007708F2007808D9
:10113E00F300F30CF20CF10CF00CF3137008D40066
:10114E007108D5008A11D3248A1583165208F4002B
:10115E005308F500F601F7018A1148248A15831603
:10116E005408F9005508FA00FB01FC010330F800A1
:10117E007908F4007A08F5007B08F6007C08F70081
:10118E0078080319D128F40DF50DF60DF70D74102E
:10119E00FF3EC8288A113C228A1570088316D80093
:1011AE007108D9007208DA007308DB000A30F40007
:1011BE000030F5005408F0005508F1008A11EF24B4
:1011CE008A1570088316D4007108D500003071029C
:1011DE00031DF328033070020318F6284B29250847
:1011EE0084005B08003C031D06295A08003C031DC1
:1011FE0006295908003C031D06295808003C03180F
:10120E00492924088004550803191F29D601D7013E
:10121E0000305702031D15295508560203181F29C1
:10122E00DC018A11DC248A15D60A0319D70A0F2984
:10123E005408DC008A11DC248A1523088005550821
:10124E0003193B29D601D70100305702031D31295E
:10125E005508560203183B29DC018A11DC248A1535
:10126E00D60A0319D70A2B295408DC008A11DC246C
:10127E008A150130D802031CD902031CDA02031CA2
:0A128E00DB02F828230880050800A1
:10129800831603134008A5004108F1000130F0004F
:1012A800710803195B29F00D7010FF3E552970086D
:1012B800A400F0097008A30080304007840070087B
:0A12C80080058413700880050800FB
:1012D2007B29803083160313C0008E29C030C000E2
:1012E2008E299430C0008E29D430C0008E298030DF
:1012F200C0008E29831603134008013A03196A2994
:101302004008023A03196F294008033A0319722967
:101312004008043A0319752978294103F00040086E
:10132200F0077008C0007008CF008A114C218A159E
:1013320083162210C30143084207840000080319E0
:10134200AC294308420784000008CD008A11B42367
:0A1352008A15C30A9C292214080022
:10135C00831203137008F8007108F000F101F20118
:10136C00F301FB01FC019630F300FA017008F10067
:10137C007808F000F801F2018A110D228A15080094
:10138C00831603130812881208108810081188118C
:10139C0083120812881288110811881008108A11FB
:1013AC0025218A158A1125218A158A1125218A154C
:1013BC008814081408168A1139218A1508128A1102
:1013CC0025218A1508168A1139218A1508128A11C5
:1013DC0025218A1508168A1139218A1508128A11B5
:1013EC0025218A15081008168A1139218A15081228
:1013FC008A1125218A1508168A1139218A15081295
:10140C008810881508168A1139218A1508128A1134
:10141C0025218A158811081408168A1139218A1574
:10142C000812081008168A1139218A1508128A1117
:10143C0025218A1508168A1139218A1508120814D3
:10144C0008168A1139218A1508128A1125218A1544
:10145C00081008168A1139218A15081288150815E2
:10146C008814081408168A1139218A1508128A1151
:0A147C0025218A15831622140800AA
:101486008A11F2278A15073083160313C00003302A
:10149600C1004C21F13086008701880185018B1738
:1014A6008B150B160117C6210130CF008A114C216E
:1014B6008A150C308316CF008A114C218A1501300B
:1014C6008316C0000130C1004E30C20069210B30C6
:1014D600FB002630FC005D30FD00FD0B702AFC0B86
:1014E600702AFB0B702A000000000130CF008A1121
:1014F6004C218A151530FB004B30FC00BE30FD0038
:10150600FD0B832AFC0B832AFB0B832A0000013088
:101516008316C0000130C1003030C2006921153089
:10152600FB004B30FC00BE30FD00FD0B982AFC0B87
:10153600982AFB0B982A00000130CF008A114C2113
:101546008A1501308316C0000130C1004730C20041
:1015560069210230C0000830C100E930C200002015
:101566000130CF008A114C218A1501308316C00044
:101576000130C1004730C20069210B30FB00263024
:10158600FC005D30FD00FD0BC62AFC0BC62AFB0BDA
:10159600C62A000000000E309F0005143B20C6211D
:1015A6000130CF008A114C218A150C308316CF00EA
:1015B6008A114C218A1501308316CF008A114C21DD
:1015C6008A1501308316C0000130C1004730C200C1
:1015D60069210230C0000830C100E930C200002095
:1015E6000230C0000930C1004330C200002083121F
:1015F600C501C6018316C0018A11C9278A1570085C
:101606008312C5007108C600AE210030F4004030D8
:10161600F5001C30F6008B30F7008A11CC238A15B2
:101626000030F4000030F5000030F6008930F70095
:101636008A1112278A157008EC007108ED007208ED
:10164600EE007308EF000030F4000030F5002030A3
:10165600F6008230F7008A1112278A157008EC000E
:101666007108ED007208EE007308EF007008F400D0
:101676007108F5007208F6007308F7000030F000F4
:101686000030F1001030F2008230F3008A11BD21E3
:101696008A150130031C0030F00070080319C12BB5
:1016A6008316B701B80100303806031D5C2B0030E5
:1016B6003706031D952B831205150630FB001330E4
:1016C600FC00AD30FD00FD0B662BFC0B662BFB0B07
:1016D600662B00000000051105150630FB001330CF
:1016E600FC00AD30FD00FD0B762BFC0B762BFB0BC7
:1016F600762B00000000051105150630FB0013309F
:10170600FC00AD30FD00FD0B862BFC0B862BFB0B86
:10171600862B00000000051101308316B70000304B
:10172600B800562B83126C088316C00083126D080E
:101736008316C10083126E088316C20083126F08D7
:101746008316C300A830C4008A110C258A15AC0183
:101756000230C0000330C100A830C2006921063043
:10176600FB001330FC00AD30FD00FD0BB82BFC0B6D
:10177600B82BFB0BB82B00000000AC2C83126C08B6
:10178600F4006D08F5006E08F6006F08F7000030EB
:10179600F0000030F1001C30F2008430F3008A11B2
:1017A600BD218A150130031C0030F00070080319B2
:1017B600442C6C08F4006D08F5006E08F6006F08FE
:1017C600F7000030F0000030F1001030F2008230F7
:1017D600F3008A11BD218A15013003180030F0008C
:1017E60070080319442C8316A601A70100302706AA
:1017F600031DFF2B00302606031D182C83128514AB
:101806000B30FB002630FC005D30FD00FD0B092C83
:10181600FC0B092CFB0B092C000000008510013085
:101826008316A6000030A700F92B83126C088316D6
:10183600C00083126D088316C10083126E088316DA
:10184600C20083126F088316C300A830C4008A1131
:101856000C258A15AC010230C0000330C100A83047
:10186600C20069210B30FB002630FC005D30FD0014
:10187600FD0B3B2CFC0B3B2CFB0B3B2C0000000018
:10188600AC2C83126C08F4006D08F5006E08F600A7
:101896006F08F7000030F0000030F1001C30F20055
:1018A6008430F3008A11BD218A15013003180030F7
:1018B600F00070080319AC2C8316BC01BD01003082
:1018C6003D06031D682C00303C06031D812C831247
:1018D60085150B30FB002630FC005D30FD00FD0B4E
:1018E600722CFC0B722CFB0B722C00000000851175
:1018F60001308316BC000030BD00622C83126C08D8
:101906008316C00083126D088316C10083126E0809
:101916008316C20083126F088316C300A830C40062
:101926008A110C258A15AC010230C0000330C100B3
:10193600A830C20069210B30FB002630FC005D3068
:10194600FD00FD0BA42CFC0BA42CFB0BA42C00000F
:10195600000083126C088316C00083126D0883167C
:10196600C10083126E088316C20083126F088316A5
:10197600C300A830C4008A110C258A15AC010230B8
:10198600C0000330C100A830C20069210630FB0048
:101996001330FC00AD30FD00FD0BCF2CFC0BCF2C23
:0C19A600FB0BCF2C00000000FD2AD82C09
:1019B80068346134763465342034613420346734D3
:1019C8006F346F3464342034543469346D3465347E
:0A19D800203421342134213400347E
:0419E2000034003499
:0E19E600743465346D34703420343D34003474
:1019F40041346E3474346934203441346C347A3470
:101A0400613469346D346534723420345334593458
:061A140053343A340034A3
:081A1A0049344E344634003417
:041A22003034003428
:081A26004E3461344E340034EB
:021A2E000F3473
:02400E007A3BFB
:00000001FF
